:100000000C94F7000C9414010C9414010C9414013A
:100010000C9414010C9414010C9414010C9414010C
:100020000C9414010C9414010C947D030C94B703EC
:100030000C9414010C9414010C9414010C941401EC
:100040000C9414010C9414010C9414010C941401DC
:100050000C9414010C9414010C9414010C941401CC
:100060000C9414010C9414010C9414010C941401BC
:100070000C9414010C9414010C9414010C941401AC
:100080000C9414010C9414010C9414010C9414019C
:100090000C9414010C9414010C9414010C9414018C
:1000A0000C9414010C9414010C94140126032203E3
:1000B0001E031A03160312030E030A0306030203A8
:1000C000FE02FA02F602F202EE02EA02E602E202A0
:1000D000DE02DA02D602D202CE02CA02C602C20290
:1000E000BE02BA02B602B202AE02AA02A602A20280
:1000F0009E029A02960292028E028A028602820270
:100100007E027A02760272026E026A02660262025F
:100110005E025A02560252024E024A02460242024F
:100120003E023A02360232022E022A0226024E45D0
:100130004954484552210A000A0000010000D1013B
:1001400012000200008E0143000300008A01040136
:10015000030904760112020309046E010603030970
:100160000464010808033400310030000000060375
:100170004D003200000012034A002E00200046000D
:10018000690065006E0065000000040309040902AF
:100190004300020100C03209040000010202010014
:1001A0000524001001052401010104240206052490
:1001B0000600010705820310004009040100020A3D
:1001C000000000070503024000000705840240000C
:1001D000001201000202000010C0167A04000101A2
:1001E0000203010001C11201803601813600112491
:1001F0001FBECFEFDAE0DEBFCDBF11E0A0E0B1E07F
:10020000E8E9FDE002C005900D92A830B107D9F7EA
:1002100021E0A8E0B1E001C01D92AC30B207E1F7E7
:100220000E9404060C94CA060C9400008091E80019
:1002300080FFFCCF089581E08093D70080EA80930F
:10024000D80082E189BD09B400FEFDCF80E980932A
:10025000D8001092E00010920B01109208018CE07F
:100260008093E2007894089580910B0108959FB7E0
:10027000F89480910B01882339F083E08093E900A2
:100280008091E80085FD03C09FBF8FEF08958091A6
:10029000F1002091E80025FD03C02BE62093E80043
:1002A0009FBF08959FB7F89480910B01882331F088
:1002B00083E08093E9008091F20001C080E09FBF5D
:1002C000089580910B01882371F08FB7F89493E023
:1002D0009093E9002BE69091E80095FF03C02093EE
:1002E000E800F9CF8FBF089590910B01992371F029
:1002F0009FB7F89424E02093E9002091090122237C
:1003000049F02091E80025FD03C09FBF8FEF0895BD
:10031000109209012091E400275E34E04091E8004A
:1003200045FD12C09FBF9091E400291304C081E0F5
:1003300080930901EBCF90910B01992339F39FB77B
:10034000F8943093E900EACF8093F1008091E800BF
:1003500085FD03C08AE38093E80085E080930A016D
:100360009FBF80E0089590910B019923D1F09FB732
:10037000F89424E02093E9002091E80025FD02C0D4
:100380009FBF0FC08093F1008091E80085FD03C0FE
:100390008AE38093E80085E080930A019FBF80E0B4
:1003A00008958FEF08950F931F93CF93DF93DC0190
:1003B000CB0120910B01222371F02FB7F89434E088
:1003C0003093E90030910901332349F03091E8007E
:1003D00035FD03C02FBF8FEF43C110920901C4E068
:1003E000D0E41AE305E0009709F438C13091E40045
:1003F000375E4091E80045FD12C02FBF2091E40018
:10040000321304C081E080930901E5CF20910B01F4
:10041000222309F32FB7F894C093E900EACF309173
:10042000F200ED2FE31B4E2F50E08417950708F4E0
:10043000E82F8E1B91094E2F50E04134510508F0F2
:1004400001C1FA01EA5AFF4F0C945E063C913093C9
:10045000F10011963C913093F10011963C9130934C
:10046000F10011963C913093F10011963C9130933C
:10047000F10011963C913093F10011963C9130932C
:10048000F10011963C913093F10011963C9130931C
:10049000F10011963C913093F10011963C9130930C
:1004A000F10011963C913093F10011963C913093FC
:1004B000F10011963C913093F10011963C913093EC
:1004C000F10011963C913093F10011963C913093DC
:1004D000F10011963C913093F10011963C913093CC
:1004E000F10011963C913093F10011963C913093BC
:1004F000F10011963C913093F10011963C913093AC
:10050000F10011963C913093F10011963C9130939B
:10051000F10011963C913093F10011963C9130938B
:10052000F10011963C913093F10011963C9130937B
:10053000F10011963C913093F10011963C9130936B
:10054000F10011963C913093F10011963C9130935B
:10055000F10011963C913093F10011963C9130934B
:10056000F10011963C913093F10011963C9130933B
:10057000F10011963C913093F10011963C9130932B
:10058000F10011963C913093F10011963C9130931B
:10059000F10011963C913093F10011963C9130930B
:1005A000F10011963C913093F10011963C913093FB
:1005B000F10011963C913093F10011963C913093EB
:1005C000F10011963C913093F10011963C913093DB
:1005D000F10011963C913093F10011963C913093CB
:1005E000F10011963C913093F10011963C913093BB
:1005F000F10011963C913093F10011963C913093AB
:10060000F10011963C913093F10011963C9130939A
:10061000F10011963C913093F10011963C9130938A
:10062000F10011963C913093F10011963C9130937A
:10063000F10011963C913093F10011963C9130936A
:10064000F10011963C913093F10011963091E80041
:1006500035FF1093E80000930A01C5CE2FBF80E05C
:10066000DF91CF911F910F9108958FB7F8949091DA
:100670000A01992341F094E09093E9009AE3909362
:10068000E80010920A018FBF089580910401089537
:1006900080910501089580910601089580910801D7
:1006A00008959FB7F89420910B01222339F022E09E
:1006B0002093E9003091E80035FD03C09FBF8FEF24
:1006C000089531EA3093F10030E23093F100109256
:1006D000F1001092F1001092F1001092F1002093BD
:1006E000F1001092F1008093F1001092F1008AE382
:1006F0008093E8009FBF80E008951F920F920FB68D
:100700000F9211248F939F938091E1001092E1004A
:1007100083FF11C01092E90091E09093EB001092DA
:10072000EC0092E19093ED0098E09093F00010922D
:100730000B011092080182FF13C080910B018823E6
:1007400079F080910A01882359F0815080930A0141
:10075000811106C084E08093E9008AE38093E80079
:100760009F918F910F900FBE0F901F9018951F9221
:100770000F920FB60F921124FF920F931F932F9396
:100780003F934F935F936F937F938F939F93AF9319
:10079000BF93CF93DF93EF93FF931092E900809183
:1007A000E80083FF17C1F090F1008091F100009103
:1007B000F1009091F10010E0192BC091F10090919F
:1007C000F100D0E0D92B2091F1006091F10092EF7F
:1007D0009093E800863009F049C08AE391E044E64E
:1007E00051E0FC01A591B4910A171B07D9F4FC0153
:1007F0003296A591B491CA17DB07A1F4FC01349697
:1008000045915491FC013696849130E0362B2F3F70
:10081000310519F010F02FEF30E0281708F4822F7F
:100820003EEF0CC0079648175907D9F6D3C0490FB9
:10083000511D891B3093E8008823A9F09091E800AE
:10084000292F2570D9F392FDC8C0982F813108F067
:1008500090E1FA01292F222351F364916093F10072
:1008600021503196F8CF903149F3B7C0853049F423
:100870008EEF8093E8000E94160100680093E30069
:10088000ACC0893059F5F110A5C000930B0110924E
:10089000080110920A018EEF8093E80041E083EE98
:1008A00091E04093E9009C012F5F3F4FFC01549180
:1008B0005093EB00552359F0F90124912093EC005B
:1008C0009C012D5F3F4F3196E491E093ED004F5F27
:1008D000453011F0C901E5CF8EE177C0883051F481
:1008E000F0E8FF1277C00E94160180910B018093FF
:1008F000F10049C0813281F481EAF8126BC00E9494
:100900001601E0E0F1E087E091E021912093F10011
:100910008E179F07D1F737C08032A9F491E2F91200
:1009200059C08091E80082FFFCCFE0E0F1E087E071
:1009300091E02091F10021938E179F07D1F78BEF63
:100940008093E80020C0823241F4E1E2FE1242C00E
:10095000009308010E94160116C0811118C00E9460
:100960001601F2E8FF120AC0C093E9008091EB0083
:1009700085FB882780F91092E90001C080E0809310
:10098000F1001092F1008EEF8093E80026C0982FBE
:100990009D7F9130F9F492E0F9121CC0012BD1F443
:1009A000CF779FEF9C0F9430A8F49EEF9093E800D0
:1009B000C093E900833071F089E18093EB0081E01E
:1009C00090E001C0880FCA95EAF78093EA00109280
:1009D000EA0003C081E28093EB00FF91EF91DF9189
:1009E000CF91BF91AF919F918F917F916F915F91C7
:1009F0004F913F912F911F910F91FF900F900FBE3C
:100A00000F901F9018951F93CF93DF93EC01FE0179
:100A10001491112351F01A3019F48DE00E947401E1
:100A2000812F0E9474012196F2CFDF91CF911F9107
:100A300008958A3010F097E301C090E3890F0C9479
:100A40007401CF93C82F82958F700E9419058C2F47
:100A50008F70CF910C941905CF93C82F892F0E94C6
:100A600021058C2FCF910C9421050C942105EF9238
:100A7000FF920F931F93CF93DF93CDB7DEB72797E6
:100A80000FB6F894DEBF0FBECDBF8E010F5F1F4FB4
:100A900027E0F80111922A95E9F74AE0B8010E948F
:100AA00064067E01F8E0EF0EF11CF80181918F01E0
:100AB00081110E9474010E151F05B9F727960FB614
:100AC000F894DEBF0FBECDBFDF91CF911F910F9184
:100AD000FF90EF900895EF92FF920F931F93CF93A3
:100AE000DF9300D000D000D0CDB7DEB78E010F5F0E
:100AF0001F4F26E0F80111922A95E9F74AE0B80164
:100B00000E94A0067E01F6E0EF0EF11CF801819133
:100B10008F0181110E9474010E151F05B9F72696E9
:100B20000FB6F894DEBF0FBECDBFDF91CF911F91FE
:100B30000F91FF90EF900895EF92FF920F931F9304
:100B4000CF93DF93CDB7DEB72B970FB6F894DEBF08
:100B50000FBECDBF8E010F5F1F4F2BE0F80111922A
:100B60002A95E9F72AE0A8010E946F067E01FCE0C1
:100B7000EF0EF11CF80181918F0181110E94740127
:100B80000E151F05B9F72B960FB6F894DEBF0FBEF2
:100B9000CDBFDF91CF911F910F91FF90EF900895FE
:100BA000EF92FF920F931F93CF93DF93CDB7DEB7F2
:100BB0002B970FB6F894DEBF0FBECDBF8E010F5F2F
:100BC0001F4F2BE0F80111922A95E9F72AE0A801BE
:100BD0000E947E067E01FBE0EF0EF11CF801819180
:100BE0008F0181110E9474010E151F05B9F72B9614
:100BF0000FB6F894DEBF0FBECDBFDF91CF911F912E
:100C00000F91FF90EF9008950E941B0180E8809360
:100C10006100109261003F9847983E9A279AC59AC2
:100C200080919100846080939100809191008D7FEC
:100C300080939100809191008160809391008091D8
:100C400091008F7B80939100469A2F9AC59BFECF8F
:100C50002091960030919700C59AC59BFECF809158
:100C6000960090919700C59A2817390724F08217AB
:100C7000930724F40197EC01C21BD30BC531D105B6
:100C80002CF3CE010E946B0588E391E00E940305DE
:100C9000CE014797039718F4469A2F98D7CFCE01E5
:100CA0008D569240099718F42F9A4698CFCF2F98D7
:100CB00046988EE291E00E940305C8CFEE0FFF1F19
:100CC0000590F491E02D0994BB274A3031F4992323
:100CD00022F4BDE2909581959F4F0C94A106BB270D
:100CE0002A3051F4992342F4BDE290958095709595
:100CF00061957F4F8F4F9F4F0C947F06BB27FA0162
:100D0000A62F6217710581059105330B30FB66F044
:100D1000AA27660F771F881F991FAA1FA21710F016
:100D2000A21B63953850A9F7A05DAA3308F0A95D0E
:100D3000A19336F7B111B1931082CA010C94BA068F
:100D4000BB27FB015527AA27880F991FAA1FA417A5
:100D500010F0A41B83955051B9F7A05DAA3308F099
:100D6000A95DA193009779F7B111B1931192CB01CD
:100D70000C94BA06DC01FC01672F71917723E1F72F
:100D8000329704C07C916D9370836291AE17BF0758
:080D9000C8F30895F894FFCFA9
:080D980000E10000000008006A
:00000001FF
