:100000000C9456000C9460000C9460000C946000FA
:100010000C9460000C9460000C9460000C946000E0
:100020000C9460000C9460000C9460000C946000D0
:100030000C9460000C9460000C9460000C946000C0
:100040000C9460000C9460000C9460000C946000B0
:100050000C9460000C9460000C9460000C946000A0
:100060000C9460000C9460000C9460000C94600090
:100070000C9460000C9460000C9460000C94600080
:100080000C9460000C9460000C9460000C94600070
:100090000C9460000C9460000C9460000C94600060
:1000A0000C9460000C9460000C94600011241FBE3E
:1000B000CFEFDAE0DEBFCDBF0E9462000C9490006B
:1000C0000C940000E1E6F0E080E8808310823E9A24
:1000D000E1E9F0E080818460808380818D7F80838E
:1000E000808181608083A0E9B0E08C9180688C93EE
:1000F0008C918F7B8C9380818F7E808380818860C0
:1001000080838C9182608C938C9181608C9388E940
:1001100093E0909399008093980080E090E0089598
:04012000F894FFCF81
:00000001FF
