:100000000C9456000C9460000C9460000C946000FA
:100010000C9460000C9460000C9460000C946000E0
:100020000C9460000C9460000C9460000C946000D0
:100030000C9460000C9460000C9460000C946000C0
:100040000C9460000C9460000C9460000C946000B0
:100050000C9460000C9460000C9460000C946000A0
:100060000C9460000C9460000C9460000C94600090
:100070000C9460000C9460000C9460000C94600080
:100080000C9460000C9460000C9460000C94600070
:100090000C9460000C9460000C9460000C94600060
:1000A0000C9460000C9460000C94600011241FBE3E
:1000B000CFEFDAE0DEBFCDBF0E9462000C94BA0140
:1000C0000C94000080E880936100109261003E9AD9
:1000D000809191008B7F80939100809191008D7F22
:1000E0008093910080919100816080939100809134
:1000F0009000806880939000809190008F7B809327
:100100009000809191008F7E80939100809191006A
:10011000886080939100809190008260809390002D
:1001200080919000816080939000109299001092CD
:100130009800C12CD12C7601C0E0D0E0C83B8BE008
:10014000D80748F42DE837E94EEA5EE3C701B60167
:100150000E94CE000CC0C13797E1D90750F02AEABF
:1001600031EF42E85EE3C701B6010E94CD006B01AA
:100170007C01C701B6010E943A0170939900609317
:1001800098008FE891E00197F1F700C00000C031BE
:1001900097E2D90770F62196D1CF5058BB27AA27EE
:1001A0000E94E5000C9480010E94720138F00E94C8
:1001B000790120F039F49F3F19F426F40C946F0173
:1001C0000EF4E095E7FB0C946901E92F0E94910180
:1001D00058F3BA17620773078407950720F079F47C
:1001E000A6F50C94B3010EF4E0950B2EBA2FA02DBA
:1001F0000B01B90190010C01CA01A0011124FF27D4
:10020000591B99F0593F50F4503E68F11A16F040CE
:10021000A22F232F342F4427585FF3CF46953795CD
:100220002795A795F0405395C9F77EF41F16BA0B92
:10023000620B730B840BBAF09150A1F0FF0FBB1F40
:10024000661F771F881FC2F70EC0BA0F621F731F89
:10025000841F48F4879577956795B795F7959E3FE6
:1002600008F0B0CF9395880F08F09927EE0F979577
:10027000879508950E94990188F09F5798F0B92FAB
:100280009927B751B0F0E1F0660F771F881F991FCB
:100290001AF0BA95C9F714C0B13091F00E94B301B9
:1002A000B1E008950C94B301672F782F8827B85FC9
:1002B00039F0B93FCCF3869577956795B395D9F723
:1002C0003EF490958095709561957F4F8F4F9F4F2D
:1002D000089597F99F6780E870E060E008959FEFC8
:1002E00080EC089500240A941616170618060906CD
:1002F000089500240A94121613061406050608959C
:10030000092E0394000C11F4882352F0BB0F40F423
:10031000BF2B11F460FF04C06F5F7F4F8F4F9F4F63
:10032000089557FD9058440F551F59F05F3F71F0E5
:100330004795880F97FB991F61F09F3F79F087954C
:100340000895121613061406551FF2CF4695F1DFD5
:1003500008C0161617061806991FF1CF8695710565
:10036000610508940895E894BB2766277727CB0199
:0803700097F90895F894FFCFFE
:00000001FF
