:100000000C9456000C9460000C9460000C946000FA
:100010000C9460000C9460000C9460000C946000E0
:100020000C9460000C9460000C9460000C946000D0
:100030000C9460000C9460000C9460000C946000C0
:100040000C9460000C9460000C9460000C946000B0
:100050000C9460000C9460000C9460000C946000A0
:100060000C9460000C9460000C9460000C94600090
:100070000C9460000C9460000C9460000C94600080
:100080000C9460000C9460000C9460000C94600070
:100090000C9460000C9460000C9460000C94600060
:1000A0000C9460000C9460000C94600011241FBE3E
:1000B000CFEFDAE0DEBFCDBF0E9434010C94F00335
:1000C0000C9400008F929F92AF92BF92CF92DF92DA
:1000D000EF92FF920F931F93CF93DF938C01CB018D
:1000E000BA0120E030EC4FE754E40E9483036B0137
:1000F0007C01B801012E000C880B990B0E94CE02E6
:100100009B01AC01C701B6010E942B024B015C01AF
:10011000C12CD12C7601C0E0D0E0C017D107D9F0B6
:10012000C017D10740F4A5019401C701B6010E9490
:10013000BA016B017C01C701B6010E949D02709358
:100140009900609398008FE891E00197F1F700C063
:1001500000002196E2CFDF91CF911F910F91FF9088
:10016000EF90DF90CF90BF90AF909F908F900895C9
:100170004F925F926F927F928F929F92AF92BF92B7
:10018000CF92DF92EF92FF92CF93DF9300D000D017
:1001900000D0CDB7DEB74B015C01CA01B90120E048
:1001A00030EC4FE754E40E9483036B017C010E9412
:1001B0009D027093990060939800A5019401C70176
:1001C000B6010E942B0269837A838B839C831E82F3
:1001D0001D822D813E81B90180E090E00E94CC0219
:1001E0002B013C019B01AC01C501B4010E947E03BF
:1001F00018162CF529813A814B815C81C701B60123
:100200000E94B9016B017C010E949D0270939900CC
:10021000609398008FE891E00197F1F700C000002B
:10022000A3019201C501B4010E94260218163CF4F4
:100230002D813E812F5F3F4F3E832D83CACF26966F
:100240000FB6F894DEBF0FBECDBFDF91CF91FF9008
:10025000EF90DF90CF90BF90AF909F908F907F9066
:100260006F905F904F90089580E8809361001092A6
:1002700061003E9A809191008B7F809391008091E4
:1002800091008D7F80939100809191008160809397
:100290009100809190008068809390008091900000
:1002A0008F7B80939000809191008F7E809391004E
:1002B000809191008860809391008091900082608D
:1002C00080939000809190008160809390001092C4
:1002D000990010929800C0E0D0E0BE010D2E000CF5
:1002E000880B990B0E94CE022DEC3CEC4CEC5DE3AC
:1002F0000E9483039B01AC0160E070E080E89FE313
:100300000E94B9016B017C01AB01BC0188EE93E056
:100310000E946200A701960160E070E08AE795E420
:100320000E94B80020E030E040E05FE3C701B60182
:100330000E9483036B017C01AB01BC0188EE93E05A
:100340000E946200A701960160E070E08AE795E4F0
:100350000E94B8002FEF87EA91E62150804090403C
:10036000E1F700C000002196CB30D10509F0B5CFF0
:10037000B2CF5058BB27AA270E94D1010C94440346
:100380000E94360338F00E943D0320F039F49F3F6D
:1003900019F426F40C9433030EF4E095E7FB0C9467
:1003A0002D03E92F0E94550358F3BA17620773070C
:1003B0008407950720F079F4A6F50C9477030EF4E2
:1003C000E0950B2EBA2FA02D0B01B90190010C0165
:1003D000CA01A0011124FF27591B99F0593F50F47D
:1003E000503E68F11A16F040A22F232F342F4427D5
:1003F000585FF3CF469537952795A795F0405395CD
:10040000C9F77EF41F16BA0B620B730B840BBAF09C
:100410009150A1F0FF0FBB1F661F771F881FC2F707
:100420000EC0BA0F621F731F841F48F4879577951B
:100430006795B795F7959E3F08F0B0CF9395880FD5
:1004400008F09927EE0F9795879508950E94090364
:1004500008F481E008950E943F020C9444030E9436
:100460003D0358F00E94360340F029F45F3F29F025
:100470000C942D0351110C9478030C9433030E94B7
:10048000550368F39923B1F3552391F3951B550B4D
:10049000BB27AA2762177307840738F09F5F5F4F57
:1004A000220F331F441FAA1FA9F335D00E2E3AF096
:1004B000E0E832D091505040E695001CCAF72BD0AE
:1004C000FE2F29D0660F771F881FBB1F26173707FF
:1004D0004807AB07B0E809F0BB0B802DBF01FF2731
:1004E00093585F4F3AF09E3F510578F00C942D03DE
:1004F0000C9478035F3FE4F3983ED4F386957795A8
:100500006795B795F7959F5FC9F7880F911D9695E9
:10051000879597F90895E1E0660F771F881FBB1F45
:10052000621773078407BA0720F0621B730B840BF2
:10053000BA0BEE1F88F7E09508950E945D0388F0DE
:100540009F5798F0B92F9927B751B0F0E1F0660F97
:10055000771F881F991F1AF0BA95C9F714C0B130D8
:1005600091F00E947703B1E008950C947703672F10
:10057000782F8827B85F39F0B93FCCF38695779507
:100580006795B395D9F73EF49095809570956195F0
:100590007F4F8F4F9F4F0895E89409C097FB3EF41B
:1005A00090958095709561957F4F8F4F9F4F9923C0
:1005B000A9F0F92F96E9BB279395F695879577953E
:1005C0006795B795F111F8CFFAF4BB0F11F460FFFE
:1005D0001BC06F5F7F4F8F4F9F4F16C0882311F056
:1005E00096E911C0772321F09EE8872F762F05C06A
:1005F000662371F096E8862F70E060E02AF09A9505
:10060000660F771F881FDAF7880F9695879597F9F9
:100610000895990F0008550FAA0BE0E8FEEF161693
:100620001706E807F907C0F012161306E407F507E6
:1006300098F0621B730B840B950B39F40A2661F05A
:10064000232B242B252B21F408950A2609F4A140FD
:10065000A6958FEF811D811D089597F99F6780E80A
:1006600070E060E008959FEF80EC089500240A9404
:100670001616170618060906089500240A9412167D
:100680001306140605060895092E0394000C11F4B0
:10069000882352F0BB0F40F4BF2B11F460FF04C05D
:1006A0006F5F7F4F8F4F9F4F089557FD9058440FB6
:1006B000551F59F05F3F71F04795880F97FB991FC1
:1006C00061F09F3F79F0879508951216130614067E
:1006D000551FF2CF4695F1DF08C01616170618060B
:1006E000991FF1CF86957105610508940895E894E6
:1006F000BB2766277727CB0197F908950E94090346
:1007000008F48FEF08950E9496030C9444030E940E
:10071000360338F00E943D0320F0952311F00C942D
:100720002D030C94330311240C9478030E94550379
:1007300070F3959FC1F3950F50E0551F629FF00134
:10074000729FBB27F00DB11D639FAA27F00DB11D4D
:10075000AA1F649F6627B00DA11D661F829F2227D6
:10076000B00DA11D621F739FB00DA11D621F839F5D
:10077000A00D611D221F749F3327A00D611D231F33
:10078000849F600D211D822F762F6A2F11249F5781
:1007900050409AF0F1F088234AF0EE0FFF1FBB1F84
:1007A000661F771F881F91505040A9F79E3F510543
:1007B00080F00C942D030C9478035F3FE4F3983E93
:1007C000D4F3869577956795B795F795E7959F5FED
:1007D000C1F7FE2B880F911D9695879597F908957F
:0407E000F894FFCFBB
:00000001FF
